:100000000C941C020C9444020C9444020C94440280
:100010000C9444020C9444020C9444020C94440248
:100020000C9444020C9444020C9444020C9457180F
:100030000C9444020C9444020C9444020C94440228
:100040000C940D180C9444020C94DB170C94B51707
:100050000C9444020C9444020C9444020C94440208
:100060000C9444020C944402AED580A81FD30040E7
:100070008D142002A1C8DA02817FD9F1DB40A4A649
:10008000AF2062797465730053697A653A20004E37
:10009000616D653A200046696C653A200020202099
:1000A0002020202020202020202020202020202050
:1000B0002020200000030C0F30333C3FC0C3CCCFC6
:1000C000F0F3FCFF00000000250028002B000000DA
:1000D00000002300260029000000000800020100A3
:1000E0000003040700000000000000000000000002
:1000F000240027002A000102040810204080010289
:10010000040810200102040810200404040404045C
:1001100004040202020202020303030303034E6FFC
:1001200020636172642C2077726F6E672063686948
:10013000702073656C6563742070696E2C206F721B
:10014000205350492070726F626C656D3F004361AF
:100150006E27742061636365737320534420636169
:1001600072642E20446F206E6F74207265666F7209
:100170006D61742E004E6F206572726F7220666F13
:10018000756E642E0043616E2774206F70656E205B
:10019000726F6F74206469726563746F72792E0078
:1001A000496E76616C696420666F726D61742C2093
:1001B0007265666F726D61742053442E00536565DD
:1001C0002073657269616C20666F72206572726F50
:1001D0007273006572726F722100534420696E69F8
:1001E000742E2E2E200041592D706C61796572326B
:1001F00000000005072060000000000000005F0014
:10020000000007000700147F147F14242A7F2A129D
:100210002313086462364956205000080703000083
:100220001C2241000041221C002A1C7F1C2A0808B5
:100230003E080800807030000808080808000060C8
:10024000600020100804023E5149453E00427F40B4
:100250000072494949462141494D331814127F1013
:1002600027454545393C4A4949314121110907365D
:1002700049494936464949291E00001400000040FA
:1002800034000000081422411414141414004122F4
:10029000140802015909063E415D594E7C121112A3
:1002A0007C7F494949363E414141227F4141413E9F
:1002B0007F494949417F090909013E414151737F05
:1002C0000808087F00417F41002040413F017F082E
:1002D0001422417F404040407F021C027F7F04087F
:1002E000107F3E4141413E7F090909063E415121AF
:1002F0005E7F09192946264949493203017F0103D6
:100300003F4040403F1F2040201F3F4038403F6358
:100310001408146303047804036159494D43007FB2
:100320004141410204081020004141417F04020183
:100330000204404040404000030708002054547825
:10034000407F284444383844444428384444287F73
:10035000385454541800087E090218A4A49C787FCD
:100360000804047800447D40002040403D007F1098
:1003700028440000417F40007C047804787C080415
:1003800004783844444438FC1824241818242418C9
:10039000FC7C08040408485454542404043F4424B6
:1003A0003C4040207C1C2040201C3C4030403C44D1
:1003B000281028444C9090907C4464544C4400088D
:1003C00036410000007700000041360800020102BB
:1003D00004023C2623263C68001980200041592D48
:1003E000706C61796572322C204F4C4544206265F7
:1003F00067696E2E00202020202020202020202031
:10040000202020202020202020202000202020200C
:1004100020005061757365006572726F723A20003A
:100420002C3058005344206572726F72436F6465BC
:100430003A2030580000881911241FBECFEFD8E0B1
:10044000DEBFCDBF11E0A0E0B1E0EEE6F9E402C00E
:1004500005900D92A437B107D9F726E0A4E7B1E0E3
:1004600001C01D92AF30B207E1F712E0CCE1D2E05B
:1004700004C02197FE010E94A921CB31D107C9F701
:100480000E94E9190C94B5240C94000086E4809332
:100490007C0080917A00806480937A0080917A0059
:1004A00086FDFCCF80917800909179000895EF92BD
:1004B000FF920F931F93CF93DF938C017B01D0E0CA
:1004C000C0E0F701EC0FFD1F6491662361F0D801D5
:1004D000ED91FC910190F081E02DC8010995892BE7
:1004E00011F02196EECFCE01DF91CF911F910F91A8
:1004F000FF90EF900895AF92BF92CF92DF92EF926C
:10050000FF920F931F93CF93DF936C017B018B01BD
:10051000040F151FEB015E01AE18BF08C017D1070D
:1005200059F06991D601ED91FC910190F081E02D97
:10053000C6010995892B79F7C501DF91CF911F91EC
:100540000F91FF90EF90DF90CF90BF90AF90089504
:10055000FC01538D448D252F30E0842F90E0821BC9
:10056000930B541710F0CF96089501970895FC014E
:10057000918D828D981761F0A28DAE0FBF2FB11DA6
:100580005D968C91928D9F5F9F73928F90E00895FE
:100590008FEF9FEF0895FC01918D828D981731F0B8
:1005A000828DE80FF11D858D90E008958FEF9FEF0C
:1005B0000895FC01918D228D892F90E0805C9F4FE2
:1005C000821B91098F739927089584EC92E00E9411
:1005D000D90221E0892B09F420E0822F089580E0E0
:1005E00090E0892B29F00E94E50281110C94000013
:1005F0000895FC01A48DA80FB92FB11DA35ABF4FB8
:100600002C91848D90E001968F739927848FA68911
:10061000B7892C93A089B1898C91837080648C9365
:10062000938D848D981306C00288F389E02D808114
:100630008F7D80830895EF92FF920F931F93CF9346
:10064000DF93EC0181E0888F9B8D8C8D98131AC00D
:10065000E889F989808185FF15C09FB7F894EE89F4
:10066000FF896083E889F989808183708064808351
:100670009FBF81E090E0DF91CF911F910F91FF909C
:10068000EF900895F62E0B8D10E00F5F1F4F0F7344
:100690001127E02E8C8D8E110CC00FB607FCFACFFF
:1006A000E889F989808185FFF5CFCE010E94F902A2
:1006B000F1CFEB8DEC0FFD2FF11DE35AFF4FF082D0
:1006C0009FB7F8940B8FEA89FB8980818062CFCF36
:1006D000CF93DF93EC01888D8823B9F0AA89BB8979
:1006E000E889F9898C9185FD03C0808186FD0DC064
:1006F0000FB607FCF7CF8C9185FFF2CF808185FF85
:10070000EDCFCE010E94F902E9CFDF91CF9108959C
:10071000833081F028F4813099F08230A9F0089577
:100720008730A9F08830C9F08430B1F4809180001E
:100730008F7D03C0809180008F7780938000089523
:1007400084B58F7784BD089584B58F7DFBCF80916C
:10075000B0008F778093B00008958091B0008F7DB6
:10076000F9CFCF93DF93282F30E0F901E852FF4F04
:100770008491F901EA50FF4FD491F901E65FFE4FF1
:10078000C491CC23A1F081110E948803EC2FF0E0EA
:10079000EE0FFF1FE253FF4FA591B491EC91ED23B3
:1007A00081E090E009F480E0DF91CF91089580E04E
:1007B00090E0FACF1F93CF93DF93282F30E0F90119
:1007C000E852FF4F8491F901EA50FF4FD491F901AB
:1007D000E65FFE4FC491CC23A9F0162F81110E9431
:1007E0008803EC2FF0E0EE0FFF1FEC53FF4FA591B5
:1007F000B4918FB7F894EC91111108C0D095DE2315
:10080000DC938FBFDF91CF911F910895DE2BF8CF3E
:10081000CF93DF9390E0FC01EA50FF4F2491865F75
:100820009E4FFC0184918823D1F090E0880F991F9E
:10083000FC01E451FF4FA591B491FC01EC53FF4F33
:10084000C591D491623071F49FB7F8943C91822F96
:10085000809583238C93E8812E2B28839FBFDF9183
:10086000CF9108958FB7F894EC912E2B2C938FBFD6
:10087000F6CF3FB7F8948091830190918401A091C5
:100880008501B091860126B5A89B05C02F3F19F0C0
:100890000196A11DB11D3FBFBA2FA92F982F882700
:1008A000BC01CD01620F711D811D911D42E0660FDB
:1008B000771F881F991F4A95D1F708958F929F92AD
:1008C000AF92BF92CF92DF92EF92FF924B015C0109
:1008D0000E9439046B017C010E9439046C197D0966
:1008E0008E099F09683E734081059105A8F321E0B8
:1008F000821A9108A108B10888EEC80E83E0D81EBC
:10090000E11CF11C81149104A104B10429F7FF90AA
:10091000EF90DF90CF90BF90AF909F908F90089511
:100920002FB7F89460917F017091800180918101CF
:10093000909182012FBF0895CF93DF93EC018D85B5
:10094000882329F081508D87DF91CF9108959C8174
:100950008E819817C8F788896827E881F981008413
:10096000F185E02D42E0CE0109958C818F5F8C836B
:10097000EBCFDC01ED91FC910084F185E02D40E0AE
:1009800009940F931F93CF938C01FC016483C0855E
:10099000C60F6C2F6F700E94B9046C2F62956F7038
:1009A0006061C801CF911F910F910C94B904FC01B3
:1009B0002781269526952695621738F46583238529
:1009C000620F6770606B0C94B90408951F93CF9306
:1009D000DF93EC01142F8E81681718F4CE010E946A
:1009E000C104612FCE01DF91CF911F910C94D704E8
:1009F000CF92DF92EF92FF920F931F93CF93DF93EB
:100A0000EC01F62EC42ED22E1D868F8186958695FA
:100A10008695081710F00FEF080F1D2D011780F0B5
:100A2000412F6F2DCE010E94E604EF2CCE1430F042
:100A30006889CE010E949C04E394F8CF1F5FEECF3B
:100A40004D2D6F2DCE01DF91CF911F910F91FF9012
:100A5000EF90DF90CF900C94E6042F923F924F924C
:100A60005F926F927F928F929F92AF92BF92CF923E
:100A7000DF92EF92FF920F931F93CF93DF9300D0FB
:100A800000D000D0CDB7DEB7DC011E962D913C9191
:100A90002115310509F478C19E838D83F9013296C1
:100AA000649031964491E42EF12CB7E0EB0EF11CEA
:100AB00053E0F594E7945A95E1F7E9823196549121
:100AC0003196E491651748F08E2F90E0FC01E50F18
:100AD000F11D6E171F060CF492C06D3031F5ED81DB
:100AE000FE81868181111BC081E090E026960FB6C1
:100AF000F894DEBF0FBECDBFDF91CF911F910F9154
:100B0000FF90EF90DF90CF90BF90AF909F908F902D
:100B10007F906F905F904F903F902F90089560E08E
:100B20008D819E810E94C104DFCF6A3009F02CC103
:100B3000AD81BE8116968C911697882321F060E0D6
:100B4000CD010E94C104ED81FE8101890E9DE02C42
:100B5000112465816E0D8485882349F027812695AF
:100B6000269526958E2D821B860F18162CF08D81CA
:100B70009E810E94D704B8CFAD81BE811B969C9107
:100B80001B97890F87701B968C931B972E191596B0
:100B90002C9315971E96ED91FC91309771F1339639
:100BA000E491F0E0379633E0F595E7953A95E1F773
:100BB0000E9F002D1124EFEFE20F0E0FED81FE814D
:100BC000468141506481CF010E94F804AD81BE810D
:100BD0001C968C911C97813009F086CF1B966C91E6
:100BE0001B97660F660F660F6F731A966C931A97B2
:100BF0006064CD010E94B90477CF00E0DCCF8901A9
:100C00000A5F1F4F651BED81FE8171855189759FBC
:100C1000502D11245C83F90154912F5F3F4FF9014E
:100C20002491352F2230310508F070C06E9CC00130
:100C30006F9C900D1124689FF001699FF00D1124A5
:100C40000E0F1F1F512CAD81BE811496BC91BA832B
:100C5000ED81FE812580F585FB83862C912CAA24CD
:100C6000A394B12C312C8981381608F08BC0412C0B
:100C7000AD81BE8151968C915197481608F07BC08A
:100C8000EB811D96EC93311002C0442051F0AD81F0
:100C9000BE8115964C9115974F5F6A81CD010E94D8
:100CA000E604D12CC12CC61408F058C0F801EC0D94
:100CB000FD1D7490552061F0EA14FB0449F4E72D02
:100CC000F0E0052C02C0F595E7950A94E2F77E2E38
:100CD000ED81FE818189823081F4442009F43AC09B
:100CE00072948FE07822E72DF0E0EC54FF4F74907F
:100CF000672D8D819E810E949C04672D8D819E8130
:100D00000E949C048FEFC81AD80ACDCF477028E004
:100D1000522E541A411101C0512CF801612C30E0BF
:100D200020E0661631F04491240F311D6394319612
:100D3000F8CF600E712E711CF3016490E29EF001F9
:100D4000E39EF00DF29EF00D11248E0F9F1F080FF1
:100D5000191F79CFF72DFF707F2EC5CFD12CAC8115
:100D6000DA1639F060E08D819E810E949C04D39454
:100D7000F6CF43947DCF3394080D191DBFEFAB1A06
:100D8000BB0A71CF622DF3CE90E080E0AFCE0F931F
:100D9000CF93DF93EC011B861A8660E40E94B904AE
:100DA0000F8106950695069501504E81415020E031
:100DB00060E0CE010E94F804DF91CF910F91089579
:100DC000CF93DF93EC01E981FA81908181819CBD11
:100DD0008DBDE981FA8160E082810E94DA0381E0C1
:100DE0008B83DF91CF9108958EBD0DB407FEFDCFAB
:100DF00008958FEF8EBD0DB407FEFDCF8EB508951B
:100E00000F931F93CF93DF93EC010E9490048B010B
:100E10000E94F9068F3F69F00E949004601B710BDD
:100E2000C617D707A8F780E0DF91CF911F910F91E8
:100E3000089581E0F9CFCF93DF93FC012381222332
:100E400061F0EC010180F281E02D61E082810E947D
:100E5000DA038FEF0E94F4061B82DF91CF91089591
:100E6000DF92EF92FF920F931F93CF93DF938C014A
:100E7000C62FD22FF32EE42ED52EFC0183818111B3
:100E800003C0C8010E94E006CC2321F08CE291E06F
:100E90000E9400078C2F80640E94F4068D2D0E9412
:100EA000F4068E2D0E94F4068F2D0E94F4068D2FDD
:100EB0000E94F40687E8C11101C085E90E94F4068A
:100EC0000E94F906CBE00E94F906F801848387FFAF
:100ED00002C0C150C1F7DF91CF911F910F91FF90D8
:100EE000EF90DF9008950F931F93CF93DF93EC0162
:100EF00089018D81833039F089E0440F551F661FC9
:100F0000771F8A95D1F79A01AB0168E1CE010E9463
:100F10003007882319F082E3888339C08EEF0E945E
:100F2000F406F80180818EBD818132961E5F0DB47A
:100F300007FEFDCF8EBDE017F10711F08191F7CFCD
:100F40000DB407FEFDCF8FEF0E94F4068FEF0E94D5
:100F5000F4060E94F9068C838F71853099F480ED38
:100F600097E00E940007182F8AE51123A9F220E0DC
:100F700030E0A9016DE0CE010E943007882361F0C6
:100F800089E2CACF87E58883CE010E941B07CE0184
:100F90000E941B0710E007C00E94F9068111F0CFE4
:100FA000CE010E941B07812FDF91CF911F910F91DE
:100FB0000895EF92FF920F931F93CF93DF93EC016D
:100FC00079018D81833039F089E0440F551F661F08
:100FD000771F8A95D1F79A01AB0161E1CE010E949A
:100FE0003007882339F080E38883CE010E941B07F5
:100FF00080E037C00E9490048B010E94F9068C8328
:101000008F3F69F40E949004601B710B693E73402E
:10101000A0F385E58883CE010E941B07E6CF8E3FB3
:1010200011F080E5F7CF8FEF8EBDF701D701A1500A
:10103000BE4F9FEF0DB407FEFDCF8EB59EBD8193D1
:10104000AE17BF07B9F70DB407FEFDCF8EB58C9371
:101050001C820E94F9060E94F906CE010E941B071D
:1010600081E0DF91CF911F910F91FF90EF90089554
:10107000EF92FF921F93CF93DF93FC01208111E049
:1010800020FF14C0EC017C01F7E0EF0EF11C4B8156
:101090005C816D817E81E981FA81970180819181F6
:1010A0000E947307182F811108C010E0812FDF9173
:1010B000CF911F91FF90EF900895888181FD04C02A
:1010C00088818E7F8883F2CFE981FA814B815C81B0
:1010D0006D817E8184859585A685B785480F591FCA
:1010E0006A1F7B1F9701808191810E947307811184
:1010F000E7CFDBCFCF92DF92EF92FF921F93CF9398
:10110000DF93EC016A017B01122F8B819C81AD8101
:10111000BE818C159D05AE05BF05B1F0CE010E94C4
:10112000380881110AC090E080E0DF91CF911F91D3
:10113000FF90EF90DF90CF90089512FF0CC01882BF
:10114000CB82DC82ED82FE8213708881182B18839B
:10115000CE010796EACFE981FA819E01295F3F4FD0
:10116000B701A601808191810E94D9078111E7CF43
:10117000DACF8F929F92AF92BF92CF92DF92EF928F
:10118000FF920F931F931092AE0341E050E060E096
:1011900070E04093B1035093B2036093B303709334
:1011A000B40329EA33E03093CB032093CA031092AF
:1011B000C9034FEF5FEFBA014093CC035093CD03C7
:1011C0006093CE037093CF03882309F450C020E0CE
:1011D00040E050E0BA0189EC93E00E947A08009761
:1011E00061F480E01F910F91FF90EF90DF90CF901E
:1011F000BF90AF909F908F900895FC01E254FE4FF6
:1012000020812F7771F78A539E4FFC01C080D180D7
:10121000E280F380C114D104E104F10411F320E071
:10122000B701A60189EC93E00E947A08FC01892BA2
:10123000C1F2838594858115924099F68089823028
:1012400081F686859785892B61F225852093AB03EE
:101250008FEF820F8093AC0380E091E0291769F053
:101260008F5F893041F488E08093AD03BACFC12C01
:10127000D12C7601D4CF990FF1CF8093AD0346895D
:10128000578970E060E04115510521F444A155A152
:1012900066A177A14093B5035093B6036093B7035B
:1012A0007093B8032685378546015701820E931E39
:1012B000A11CB11C8092BD039092BE03A092BF03FB
:1012C000B092C003218932893093B0032093AF03D9
:1012D000440F551F661F771F480D591D6A1D7B1D42
:1012E0004093C5035093C6036093C7037093C8032C
:1012F00021893289A5E0220F331FAA95E1F72150F9
:101300003E4F232F33272695420F531F611D711D1A
:101310004093B9035093BA036093BB037093BC032B
:101320000389148930E020E00115110521F400A1A2
:1013300011A122A133A1C41AD50AE60AF70AC00EE8
:10134000D11EE21EF31E04C0F694E794D794C7940E
:101350008A95D2F7D701C6010196A11DB11D8093D0
:10136000C1039093C203A093C303B093C40385EF5A
:10137000C8168FE0D806E104F10420F48CE08093D5
:10138000AE032FCF80E125EFC2162FEFD206E10486
:10139000F10468F084A595A5A6A5B7A58093C5031B
:1013A0009093C603A093C703B093C80380E28093D1
:1013B000AE0381E017CF8F929F92AF92BF92CF92F0
:1013C000DF92EF92FF920F931F9342305105610518
:1013D000710560F480E01F910F91FF90EF90DF9016
:1013E000CF90BF90AF909F908F900895FC01C08CDC
:1013F000D18CE28CF38CC416D506E606F70650F3C2
:10140000480159016A017B018581803241F5848957
:101410009589A689B78917E0769567955795479579
:101420001A95D1F7480F591F6A1F7B1F23E0CF0180
:1014300080960E947A08009769F2E894C7F8DD2444
:10144000EE24FF24CC0CDD1CCC0CDD1C8C0D9D1D72
:10145000FC0180829182A282B38281E0BCCF803184
:1014600009F0B8CF44895589668977894D0D511D9A
:10147000611D711D23E0CF0180960E947A080097BC
:1014800009F4A8CFDD24EE24FF24CC0CDD1CC80E0B
:10149000D91EF60111830083E0CFCF92DF92EF9245
:1014A000FF920F931F93CF93DF9342305105610555
:1014B000710550F48FEFDF91CF911F910F91FF9045
:1014C000EF90DF90CF900895FC01C08CD18CE28C1E
:1014D000F38CC416D506E606F70660F389016A01A7
:1014E0007B01EC0185818032B9F584899589A689D3
:1014F000B789E7E07695679557954795EA95D1F7CF
:10150000480F591F6A1F7B1F22E0CE0180960E9460
:101510007A08009779F2E894C7F8DD24EE24FF24D6
:10152000CC0CDD1CCC0CDD1C8C0D9D1DFC018081C8
:101530009181A281B381BF70488D598D6A8D7B8D59
:10154000481759076A077B0738F1F80180839183B0
:10155000A283B38381E0AFCF803109F0ABCF448960
:101560005589668977894D0D511D611D711D22E0D8
:10157000CF0180960E947A08009709F49BCFDD2462
:10158000EE24FF24CC0CDD1CC80ED91EF601808190
:101590009181B0E0A0E0D0CF80E08DCFFC019C0134
:1015A000255F3F4F80E080FB879587F99191890FF8
:1015B0002E173F07C1F70895CF93DF93FC012081D9
:1015C000211104C081E0DF91CF910895EC01828167
:1015D00082FF39C0448955896689778986819781D8
:1015E00021E080960E947A08009729F48981816021
:1015F000898380E0E8CFEC81FD81EF70FF2725E053
:10160000EE0FFF1F2A95E1F7E80FF91F309771F3EE
:101610008081853E59F3888183FF08C0888D998D2C
:10162000AA8DBB8D848F958FA68FB78F8C8D9D8D46
:10163000938F828F8C8D9D8DAE8DBF8DB58BA48B3E
:101640008A818B7F8A838E819F8180960E94380851
:10165000882361F2B7CF4F925F926F927F928F9201
:101660009F92AF92BF92CF92DF92EF92FF920F9331
:101670001F93CF93DF93EC014A015B014C845D849F
:101680006E847F84A881AA2309F486C04889598979
:101690006A897B89481559056A057B0569F08114BB
:1016A0009104A104B10451F41C861D861E861F8678
:1016B000888A998AAA8ABB8A81E073C0A3FF59C02D
:1016C000088D198D2A8D3B8D081519052A053B05B6
:1016D00008F462C0EE81FF81848190E009968A015E
:1016E0009B010150110921093109082E04C03695CA
:1016F0002795179507950A94D2F775016401B1E013
:10170000CB1AD108E108F10804C0F694E794D79405
:10171000C7948A95D2F7C016D106E206F30628F0E0
:10172000452B462B472B09F052C0A6FF4BC0848D9A
:10173000958DA68DB78D8C879D87AE87BF878E01CF
:10174000045F1F4FC114D104E104F10409F4B0CFC8
:101750004C855D856E857F8598018E819F810E9475
:101760004D0A91E0C91AD108E108F108181654F39E
:1017700013C0A5FFAFCFEE81FF818681978125E061
:10178000880F991F2A95E1F7B0E0A0E08815990528
:10179000AA05BB0508F08CCF4C865D866E867F86D9
:1017A00080E0DF91CF911F910F91FF90EF90DF903C
:1017B000CF90BF90AF909F908F907F906F905F90F1
:1017C0004F9008958C8D9D8DAE8DBF8DB4CFC01A76
:1017D000D10AE20AF30AB3CFCF93DF93EC010E9460
:1017E000DC0A1882DF91CF9108953F924F925F9269
:1017F0006F927F928F929F92AF92BF92CF92DF9221
:10180000EF92FF920F931F93CF93DF9300D000D0FE
:10181000CDB7DEB74C01FC01828184608283A68053
:10182000B7804484558466847784F501C084D1846C
:10183000E284F384C414D504E604F70410F011E044
:1018400003C07301620110E0FFEFCF1ADF0AEF0A55
:10185000FF0AF501808D918DA28DB38D8C159D05AC
:10186000AE05BF0538F4111131C0C084D184E284C3
:10187000F384E5CF4C145D046E047F0439F19E01BE
:101880002F5F3F4FB701A601C5010E944D0A87FD9A
:101890001DC08823C9F289819A81AB81BC81892BC3
:1018A0008A2B8B2B89F6112329F0F501C086D1866E
:1018B000E286F3860FEF1FEF2FEF3FE0B701A6019F
:1018C000C5010E94DB09382E811118C0312C832DEF
:1018D0000F900F900F900F90DF91CF911F910F916C
:1018E000FF90EF90DF90CF90BF90AF909F908F9040
:1018F0007F906F905F904F903F90089541145104F6
:101900006104710431F4F401C486D586E686F78655
:10191000DECF97018601B301A201C5010E94DB0958
:101920008111F1CFD3CF85B18C7F85B90895809196
:10193000BE029091BF022091BC023091BD0282177D
:101940009307E9F09C012F5F3F4F3093BF02209334
:10195000BE0280579E4FFC0180812C32314021F421
:101960001092BF021092BE022091790130917A014B
:101970002F5F3F4F30937A0120937901089580E0E3
:1019800008950E94930C10927801109276011092A3
:10199000770180E090E0A0E8BFE38093000190939E
:1019A0000101A0930201B093030160E082E00E9474
:1019B000DA0362E370E080E090E00E945E0461E0A0
:1019C00082E00E94DA0362E370E080E090E00C9431
:1019D0005E04FC016093BC008091BC0087FFFCCFDB
:1019E0009091B900987F90830895DF92EF92FF92D3
:1019F0000F931F93CF93DF93EC01D62EF42E8C8997
:101A0000882351F0411108C084E98093BC00809183
:101A1000BC0084FDFCCF1C8A8E010E5E1F4F8C899A
:101A200081111AC0EB8864EAC8010E94E90C8A8916
:101A3000883011F0803139F4EE0CE092BB0064E89C
:101A4000C8010E94E90C80E0F11080E48093BB00A3
:101A500064E8C8010E94E90CD092BB0064E8C801A8
:101A60000E94E90C82E0F8120BC08C898F5F8C8B8E
:101A7000DF91CF911F910F91FF90EF90DF9008952C
:101A800084E98093BC008091BC0084FDFCCF1C8A5B
:101A9000EFCF04960C94DC0A089590E080E008955E
:101AA000FB0101900020E9F73197AF01461B570B6E
:101AB000DC01ED91FC910280F381E02D09940F93FC
:101AC0001F93CF93DF93EC010E9457028C0169E3CF
:101AD00071E0CE010E94500D800F911FDF91CF91D8
:101AE0001F910F9108958F929F92AF92BF92EF92A4
:101AF000FF920F931F93CF93DF93CDB7DEB7A197DC
:101B00000FB6F894DEBF0FBECDBF7C01FA01CB014A
:101B100019A2223008F42AE08E010F5D1F4F822E99
:101B2000912CB12CA12CBF01A50194010E945B1F37
:101B3000F901CA016A300CF5605DD8016E938D0120
:101B4000232B242B252B79F790E080E0109721F0B0
:101B5000BD01C7010E94500DA1960FB6F894DEBFDB
:101B60000FBECDBFDF91CF911F910F91FF90EF90EE
:101B7000BF90AF909F908F900895695CDECF0F93D8
:101B80001F93CF93DF93EC010E94500D8C0169E30A
:101B900071E0CE010E94500D800F911FDF91CF9117
:101BA0001F910F91089564E274E084EC92E00E942A
:101BB00057024091F00550E070E060E020E184ECD5
:101BC00092E00E94730D60E274E084EC92E00E9467
:101BD00057024091F40550E070E060E020E184ECB1
:101BE00092E00E94730D69E371E084EC92E00C9442
:101BF000500DCF93DF93EC0168E174E084EC92E048
:101C00000E945702BE0184EC92E00E94BF0D8091B9
:101C1000F005882321F0DF91CF910C94D30DDF9153
:101C2000CF910895CF93DF93D82FC8E06D2F661F13
:101C30006627661F86E00E94DA03DD0F61E084E01C
:101C40000E94DA0360E084E00E94DA03C15071F779
:101C5000DF91CF910895CF93DF93D82FC62F88EFD0
:101C60008D0F8330B8F4D830B9F5609377016C2FBD
:101C700070E090E080E00E949C2020910001309173
:101C8000010140910201509103010E9428210E940C
:101C90006B20C62F0E94930C60E085E00E94DA035F
:101CA0008D2F0E94120E61E085E00E94DA0385B15B
:101CB000836085B90E94930C60E085E00E94DA039E
:101CC0008C2F0E94120E61E085E00E94DA03299AAF
:101CD000DF91CF910C94930CD93019F46093760175
:101CE000C6CF60937801C3CF609300017093010168
:101CF00080930201909303016091770188E00E9434
:101D00002B0E6091760189E00E942B0E6091780184
:101D10008AE00C942B0ECF92DF92EF92FF920F93FA
:101D20001F93CF93DF93FC0180E2DF011D928A9520
:101D3000E9F7EB01AE81BF81B783A6835583448366
:101D4000CC8CDD8CEE8CFF8CC086D186E286F3864F
:101D50004F705527ED01A79695E0440F551F9A95B2
:101D6000E1F7BE01640F751FEB018B8583FD49C050
:101D7000CD01840F951FEC018AA987718083EB0147
:101D80009B85987111F488608083238381E082832E
:101D900093960D911D912D913C919697048B158BE7
:101DA000268B378BA40FB51FDB964D915C91DC978A
:101DB00070E060E0BA0155274427ED01CF5BDF4FAB
:101DC0000881198130E020E0402B512B622B732BCE
:101DD000448F558F668F778FAD5BBF4F8D919D91EF
:101DE0000D90BC91A02D808F918FA28FB38F81E039
:101DF000DF91CF911F910F91FF90EF90DF90CF90E7
:101E00000895108280E0F4CFFC01808181110FC021
:101E100080E2DF01982F1D929A95E9F77783668318
:101E2000DB0115969C91903129F0903211F080E001
:101E3000089580E4808381E0828308958F929F9249
:101E4000AF92BF92DF92EF92FF920F931F93CF93C7
:101E5000DF93EC017B012881222309F4BBC08A8136
:101E600080FFB8C088889988AA88BB8823FF21C0D2
:101E7000888D998DAA8DBB8D88199909AA09BB09EE
:101E800082309105A105B10518F5009709F530E0FC
:101E900020E0A901481B590BCA01DF91CF911F9186
:101EA0000F91FF90EF90DF90BF90AF909F908F9039
:101EB000089525FF0DC0EE81FF818681978135E071
:101EC000880F991F3A95E1F78815990509F488C09C
:101ED00084011170EE81FF81B501A40189E076953E
:101EE0006795579547958A95D1F725FF27C0848D2B
:101EF000958DA68DB78D480F591F6A1F7B1F8E8148
:101F00009F8120E080960E947A08009709F462C0C1
:101F1000800F911FFC018081F70180838889998956
:101F2000AA89BB890196A11DB11D888B998BAA8BAB
:101F3000BB8B21E030E090E080E0ABCFD380D422B7
:101F40000115110581F4D1100EC089288A288B282B
:101F500081F526FF29C0848D958DA68DB78D8C8740
:101F60009D87AE87BF87EE81FF814C855D856E853D
:101F70007F854250510961097109848104C0440F71
:101F8000551F661F771F8A95D2F780899189A2898C
:101F9000B389840F951FA61FB71FAC01BD014D0D5E
:101FA000511D611D711DABCF8C8D9D8DAE8DBF8D73
:101FB000D6CF4C855D856E857F859E01245F3F4F22
:101FC000CF010E944D0A87FD05C08111CCCF8881C9
:101FD000807749F48981826089838FEF9FEF5DCF9D
:101FE00030E020E0A8CF21E030E081E090E051CF68
:101FF000EF92FF920F931F93CF93DF931F92CDB772
:10200000DEB77C01962FF701408951896289738977
:102010008A019B0185E036952795179507958A9546
:10202000D1F70F7011F0911129C0BE016F5F7F4F82
:10203000C7010E941E0F813051F090E080E00F90A8
:10204000DF91CF911F910F91FF90EF900895F701CD
:1020500080899189A289B3894F96A11DB11D808B7A
:10206000918BA28BB38BF701868197818796F0E2E3
:102070000F9F90011124820F931FE1CF405E5F4FAD
:102080006F4F7F4F408B518B628B738BECCFCF9216
:10209000DF92EF92FF920F931F93CF93DF938C0108
:1020A000C0E0D0E0C0907503D0907603E090770355
:1020B000F090780360E085E693E00E94F80F0097C7
:1020C00091F1FC012081222371F12E3211F1253E84
:1020D00001F1338533FD1FC0CC2321F00E94CE0ACD
:1020E0008D1321C0B701A60185E0769567955795B8
:1020F00047958A95D1F72C2F65E673E0C801DF91EB
:10210000CF911F910F91FF90EF90DF90CF900C94A3
:102110008B0EC0E0C7CF3F30E1F726FFC3CFC22F01
:10212000CF71D585BFCF80E0DF91CF911F910F9107
:10213000FF90EF90DF90CF9008952F923F924F92B3
:102140005F926F927F928F929F92AF92BF92CF9247
:10215000DF92EF92FF920F931F93CF93DF93CDB750
:10216000DEB7A2970FB6F894DEBF0FBECDBF7C01DD
:102170008B014A0119821A82DC018C91882309F4AF
:1021800019C113969C911397911171C0807601F13A
:102190008FE2FB0180831182DD24D3948D2DA296E2
:1021A0000FB6F894DEBF0FBECDBFDF91CF911F9168
:1021B0000F91FF90EF90DF90CF90BF90AF909F90E6
:1021C0008F907F906F905F904F903F902F900895E9
:1021D00054964D915D916D917C91579716968D9186
:1021E0009C9120E080960E947A08009709F4E4C050
:1021F000D7011496ED91FC91EF70FF2725E0EE0FCB
:10220000FF1F2A95E1F77F01E80EF91EE114F104A2
:1022100009F4D2C0D70148E090E080E05EE22D9161
:102220002032E9F0883039F49801290F311DF90185
:1022300050839F5F40E19D0121503109F9012081C8
:102240003FEB320F3A3128F4F7013485342309F09B
:10225000205EB801690F711DFB0120839F5F8F5FB6
:102260008B30E9F6090F111DD8011C9295CFF701AB
:1022700080859185A285B385668177819E012F5FD8
:102280003F4F39010097A105B10509F079C0C90197
:102290000E94040F882309F48DC044244394512CD8
:1022A000B12CA12C1801280C391CF1E02F1A31088F
:1022B000D70113968C911397841508F47BC014965C
:1022C0004D915C914419550970E060E085E0440F40
:1022D000551F661F771F8A95D1F7C3010E942B0BEC
:1022E000D82E882309F466C060E0C3010E94F80F6D
:1022F000FC01892B09F45EC083858F3009F05AC038
:1023000080818F71481256C0A8014A0D5B1DFAA347
:10231000E9A3950160E0A9A1BAA1653008F040C029
:1023200011968D919C910097A9F028153905E0F43C
:102330008F37910510F08FE390E02F5F3F4FDA0168
:102340008D93AD016F5F89A19AA102969AA389A38B
:102350006D3009F72815390538F4808186FF04C0EF
:10236000200F311FD9011C92D1011C92BDE0AB0E90
:10237000B11C2FEF421A520A808186FF99CF0ECFEF
:102380002CE1F30111922A95E9F720E1298321E05C
:102390002B8378876F838D8F9E8FAF8FB8A37DCF70
:1023A0006B3020F414968D919C91BDCF16968D9133
:1023B0009C91B9CFD8011C92D12CF0CE2F923F9294
:1023C0004F925F926F927F928F929F92AF92BF9245
:1023D000CF92DF92EF92FF920F931F93CF93DF93F1
:1023E000EC015B014A01888183FFC5C08A8181FFBE
:1023F000C2C083FDB7C0A40170E060E088899989FC
:10240000AA89BB8980959095A095B095841795076A
:10241000A607B70708F4AFC064011E018CE0280EC0
:10242000311C088919892A893B89C114D10409F40E
:10243000E1C08E819F81B901A80129E07695679559
:10244000579547952A95D1F7DC011396FC90F42215
:102450001170F1101BC04C855D856E857F8501155F
:10246000110509F0F4C0411551056105710509F424
:1024700088C091010E944D0A87FD7DC0811106C070
:10248000CE010E94F50B882309F475C0EE81FF810F
:102490004C855D856E857F854250510961097109C2
:1024A000848104C0440F551F661F771F8A95D2F799
:1024B00080899189A289B389840F951FA61FB71FB0
:1024C000AC01BD014F0D511D611D711D011511059F
:1024D00029F4C114B2E0DB0608F06EC080E092E09F
:1024E000801B910B76018C159D0508F47C0101156C
:1024F000110571F4488859886A887B88888D998D80
:10250000AA8DBB8D25E0481659066A067B0608F49D
:1025100021E0CF0180960E947A08009761F1A7011F
:10252000B501800F911F0E94C1210E0D1F1D0115C5
:10253000124039F48E819F8180960E94380888234A
:10254000D1F088899989AA89BB898E0D9F1DA11D0B
:10255000B11D888B998BAA8BBB8BAE0CBF1CCE1880
:10256000DF085FCF488D598D6A8D7B8DCE010E942B
:102570002B0B811140CF8981816089838FEF9FEF81
:102580004DC08C8D9D8DAE8DBF8D0097A105B10581
:1025900071F4CE010E94F50B882369F38C859D852B
:1025A000AE85BF858C8F9D8FAE8FBF8F6FCF8C8791
:1025B0009D87AE87BF876ACF83A194A1A5A1B6A14D
:1025C000481759076A077B0741F410A28FEF9FEF66
:1025D000DC0183A394A3A5A3B6A3EE81FF8195019B
:1025E000808191810E947307882329F2E12C82E087
:1025F000F82EA7CF888D998DAA8DBB8D8017910756
:10260000A207B30738F48A81088F198F2A8F3B8F6E
:1026100084608A838A8187FD14C0C401DF91CF91D1
:102620001F910F91FF90EF90DF90CF90BF90AF90F0
:102630009F908F907F906F905F904F903F902F90E2
:102640000895CE010E94DC0A8111E7CF94CFFC01EE
:102650004250510961097109848104C0440F551F1A
:10266000661F771F8A95D2F780899189A289B389DD
:10267000480F591F6A1F7B1F31CF04960C94DE113F
:10268000CF93DF931F92CDB7DEB7698341E050E06F
:10269000BE016F5F7F4F04960E94DE110F90DF91A5
:1026A000CF9108952F923F924F925F926F927F92B7
:1026B0008F929F92AF92BF92CF92DF92EF92FF9252
:1026C0000F931F93CF93DF93FC017B01892B09F4B8
:1026D000DFC08081807709F4DBC0809165038111C0
:1026E000D7C0DB011196CD90DC9012978C9183704E
:1026F000D1E041F0C6010C966DE070E00E9495219A
:10270000D1E0D60F8F0140E050E0BA01CF010E9426
:102710002B0B312C812C912CC0E05701B6E0AB0E75
:10272000B11C9DE0292EF801408851886288738889
:1027300061E0C8010E94F80F009709F4A9C0DC010C
:102740002C91253E09F49EC0222309F4B5C09D16A4
:1027500058F12E3239F1FC0133853F3009F059C070
:10276000C11124C026FFDFCFC22FCF7135848C2E3C
:10277000E82DE150FF0B2E9E90012F9E300D11246D
:102780002C153D0578F4FC01712C84E08715A8F028
:1027900081819281C216D306C9F4892B19F4C3CF63
:1027A000253EB9F6C0E0BFCF912CD3CF8A94281133
:1027B000F9CF25852315E1F2F5CFAAE0A71518F08A
:1027C00084819581E7CF86819781E4CF8F3F910502
:1027D00009F040F74FEB480F4A3108F4805EB90129
:1027E0006F5F7F4FD70113964D915C91240F351F7A
:1027F000D9019C912FEB290F2A3108F4905E981390
:10280000D1CF73943296BDE07B1609F48CCF9B0137
:10281000BCCF33FDC7CFCC2341F1E1E08E1238C0ED
:102820000E94CE0A381234C0B301A20185E0769529
:102830006795579547958A95D1F72C2FB80185E66E
:1028400093E0DF91CF911F910F91FF90EF90DF9078
:10285000CF90BF90AF909F908F907F906F905F9040
:102860004F903F902F900C948B0E4BE050E0B501B1
:102870000E94B421892B09F056CFD7018C9180FD9D
:1028800052CFD2CF9D1608F08DCF9394211188CFCF
:1028900080E0DF91CF911F910F91FF90EF90DF903B
:1028A000CF90BF90AF909F908F907F906F905F90F0
:1028B0004F903F902F9008959D1638F3E9CF2F92B7
:1028C0003F924F926F927F929F92AF92BF92CF9220
:1028D000DF92EF92FF920F931F93CF93DF93CDB7C9
:1028E000DEB7E3970FB6F894DEBF0FBECDBF1982F7
:1028F0001A82209165032223C1F080E0E3960FB68F
:10290000F894DEBF0FBECDBFDF91CF911F910F9125
:10291000FF90EF90DF90CF90BF90AF909F907F900F
:102920006F904F903F902F900895009731F3DC0106
:102930002C91207711F3ECE3F1E07F0121912F320C
:10294000E1F3FC0166817781211105C085E693E002
:102950000E94040FD3CFCE0101960E94040F88235A
:1029600061F21E01F2E32F0E311C10E2D12EF701AD
:102970009F012F5F3F4F8081803209F49AC0FDA3F1
:10298000ECA39F01A9014E1B5F0B7901D9018D9129
:102990009D01882371F08F3209F08DC0CF01840F23
:1029A000951F7C01DC012D91CD012032D1F32F3216
:1029B000C1F3DA01AE0FBF1FAD014E1B5F0BEA176B
:1029C000FB0709F492C08E918E32B1F38032A1F3ED
:1029D0004F3F510511F00CF090CF5BA34AA3DE01ED
:1029E0009796BD01DD922A163B06E1F7DF019D01B6
:1029F0002E1B3F0B8D918E32D1F38032C1F399247F
:102A000093942115310509F0912CCA0101979BABD4
:102A10008AABCF01840F951FAAA9BBA9119609F013
:102A200067C0CEA0712C17E090E0612C08E024175D
:102A300035070CF09BC05F01A20EB31ED5018C912F
:102A4000803209F491C08E3231F4AAA9BBA92A17A9
:102A50003B0709F089C0B82E8232E1F08C37D1F003
:102A6000B6EDAB2EA80EB5E0BA1510F08D3291F48C
:102A7000A6ECAA2EA80EA5E0AA1560F4B5EAAB2E26
:102A8000A80EB2E0BA1530F4AFEDAA2EA80EADE54F
:102A9000AA15D0F5AAA9BBA92A173B0709F0A6C019
:102AA0001A3009F4AEC02AA93BA91AE098E000E167
:102AB00048C0F9015DCF8C3509F41FCF982F977F5F
:102AC000923209F41ACF8A3309F417CF982F9F7BDB
:102AD0009C3309F412CF92EC980F923008F40DCF8A
:102AE00080528F3508F44ECF08CF50E040E075CFCC
:102AF000DC011E91CD011E3209F493CFAAA9BBA916
:102B00001197BBABAAAB88CFAAA9BBA92A173B07D1
:102B100039F2191708F46DC0BFE9AB2EA80EA9E170
:102B2000AA15B0F08052702A44244394490E5B01E8
:102B3000A90EB11CD5018C93B6E0942DB41508F004
:102B4000C42C2F5F3F4F73CF912C8FE5AFE5BA2E8A
:102B5000BFEBBB0EA9E1AB1538F3602AE5CF2AA97C
:102B60003BA91AE098E000E1912CEBCFCEA28FA117
:102B7000803209F4C2CE992009F1672011F082E079
:102B8000782E79A2F7018081BE016F5D7F4F882387
:102B900041F1CE0101960E945213882309F4ADCE73
:102BA00080E2E5E6F3E0DE01119601900D928A9550
:102BB000E1F785E693E00E94EC0BD9CE81E089A392
:102BC0008C2D90E0680F791F2EE7FB01208328E20F
:102BD00030E02C0F3D1F820F931F21E3DC012C936B
:102BE000D1CFCE0101960E94521388CE191708F05A
:102BF000ABCF1A3031F08AA99BA9821793070CF04A
:102C0000AECFCEA2912CB3CF0E94AF21EF92FF9214
:102C10000F931F93CF93DF93CDB7DEB7DA950FB63F
:102C2000F894DEBF0FBECDBF7C014FEF50E08E01A8
:102C30000F5F1F4FB80104960E949D10F701848119
:102C40008277C9F4F80101900020E9F73197E01B81
:102C5000F10B8091F90590E08E179F0760F4E81B57
:102C6000F90B6EE371E0C8018E0F9F1F0E94CA210D
:102C700021E0892B09F020E0822FD3950FB6F8943C
:102C8000DEBF0FBECDBFDF91CF911F910F91FF909F
:102C9000EF900895CF92DF92EF92FF920F931F93E0
:102CA000CF93DF93CDB7DEB7CC55D1090FB6F894EB
:102CB000DEBF0FBECDBF19A61AA618A61FA281E1BE
:102CC00091E09EA38DA3C0908E01D0908F010D2C1A
:102CD000000CEE08FF0860E070E0CB011C141D043E
:102CE0001E041F0434F40E94D11EA70196010E9405
:102CF000291F8B01709375016093740185E693E041
:102D00000E94EC0B80918C0190918D010E945F14C8
:102D100091E1E92E91E0F92E81110FC083E491E059
:102D20000E94F90DFFCF80E090E0DC01EDC0015082
:102D30001109CE0189960E94EC0B89A5811110C161
:102D400080916503807709F40BC1809175039091A0
:102D50007603A0917703B09178038F719927AA2702
:102D6000BB27892B8A2B8B2B09F0FAC0CE018996C1
:102D70000E944710882309F4F3C080E2FE01B9964F
:102D8000DE01159601900D928A95E1F78FA198A525
:102D90009C838B83FA82E982CE0101960E940616FB
:102DA000882339F2101611060CF4C1CF80E2FE011F
:102DB000B996DE01159601900D928A95E1F70FA163
:102DC00018A589E893E00E94EC0B80E2FE0135969D
:102DD000A9E8B3E001900D928A95E1F7109388037A
:102DE0000093870310927A01109279011092BF022A
:102DF0001092BE021092BD021092BC028AEF95E0C2
:102E00000E94C70666E970E08AEF95E00E945702CB
:102E1000809174019091750101969F938F9387E43F
:102E2000E82E81E0F82EFF92EF928E01085A1F4F94
:102E30001F930F930E94DD21B8018AEF95E00E9455
:102E4000500D6CE471E08AEF95E00E94500D809186
:102E50008F018F9380918E018F93FF92EF921F933A
:102E60000F930E94DD21B8018AEF95E00E94BF0D0B
:102E70006FE870E08AEF95E00E9457024FE050E063
:102E8000BE01675B7F4F89E893E00E949D10BE0101
:102E9000675B7F4F8AEF95E00E94BF0D68E870E0A6
:102EA0008AEF95E00E9457024091A1035091A2033E
:102EB0006091A3037091A4032AE08AEF95E00E9439
:102EC000730D61E870E08AEF95E00E945F0D0FB628
:102ED000F894DEBF0FBECDBF8091890383FF23CF5F
:102EE0008091A1039091A203A091A303B091A403A8
:102EF0004091990350919A0360919B0370919C03B8
:102F0000841B950BA60BB70B811520E89207A10532
:102F1000B10520F08FEF9FE7A0E0B0E0892B71F0C2
:102F2000BE01645A7F4F89E893E00E941E0F01970B
:102F300029F46D968FAD6D978F3F71F61092080151
:102F4000C45ADF4F0FB6F894DEBF0FBECDBFDF917E
:102F5000CF911F910F91FF90EF90DF90CF90089548
:102F600081E591E00E94F90DFFCF1F920F920FB6FD
:102F70000F9211242F933F934F935F936F937F93FF
:102F80008F939F93AF93BF93EF93FF9384EC92E063
:102F90000E94F902FF91EF91BF91AF919F918F91A4
:102FA0007F916F915F914F913F912F910F900FBE45
:102FB0000F901F9018951F920F920FB60F92112429
:102FC0002F938F939F93EF93FF93E091D402F0910F
:102FD000D5028081E091DA02F091DB0282FD1BC014
:102FE00090818091DD028F5F8F732091DE028217C6
:102FF00041F0E091DD02F0E0EC53FD4F958F8093BE
:10300000DD02FF91EF919F918F912F910F900FBE55
:103010000F901F9018958081F4CF1F920F920FB6DA
:103020000F9211242F933F938F939F93AF93BF934E
:1030300080917F0190918001A0918101B0918201E6
:1030400030917E0123E0230F2D3758F50196A11D05
:10305000B11D20937E0180937F0190938001A09306
:103060008101B09382018091830190918401A091AC
:103070008501B09186010196A11DB11D8093830148
:1030800090938401A0938501B0938601BF91AF9185
:103090009F918F913F912F910F900FBE0F901F9096
:1030A000189526E8230F0296A11DB11DD2CF1F92BD
:1030B0000F920FB60F921124CF92DF92EF92FF92F0
:1030C0000F931F932F933F934F935F936F937F9330
:1030D0008F939F93AF93BF93CF93EF93FF93809181
:1030E000080181118AC048E160E08AEF95E00E9402
:1030F000E6046DE970E08AEF95E00E945702609166
:10310000780170E090E080E00E949C2020E030E0B8
:1031100040EA5FE30E94F91F0E946B2048E18AEFBA
:1031200095E00E94E6046BE671E08AEF95E00E946C
:10313000500D6091770170E090E080E00E949C204B
:1031400020E030E040EA5FE30E94F91F9B01AC0100
:1031500060E070E084EF92E40E948C1F0E946B207C
:1031600048E18AEF95E00E94E6046DE671E08AEF9F
:1031700095E00E94500D6091760170E090E080E053
:103180000E949C2020E030E040EC5FE30E94F91FA9
:1031900020E030E048E752E40E948D1F0E946B203F
:1031A00048E18AEF95E00E94E6046FE671E08AEF5D
:1031B00095E00E94500D6091760170E090E080E013
:1031C0000E949C2020E030E040EC5FE30E94F91F69
:1031D0009B01AC0160E070E084E692E40E948C1FE9
:1031E0000E946B2048E18AEF95E00E94E60461E7C7
:1031F00071E08AEF95E00E94500D81E10E94B103D9
:10320000892B09F05BC081E080937D0180910801EA
:1032100081113CC080917B0190917C01019790933A
:103220007C0180937B011816190684F1C090BE02C0
:10323000D090BF02E0907901F0907A010091BC0239
:103240001091BD028091BE029091BF02801791073C
:10325000A9F00E94970CC82F8F3F49F08091BE02C1
:103260009091BF02CD3FA9F581E080930801809144
:10327000BE029091BF020817190741F4D092BF0215
:10328000C092BE02F0927A01E0927901FF91EF9133
:10329000CF91BF91AF919F918F917F916F915F91EE
:1032A0004F913F912F911F910F91FF90EF90DF90E1
:1032B000CF900F900FBE0F901F90189580917D01B9
:1032C000882309F4A3CF10927D0181E08093080147
:1032D0009DCFCE3F79F40817190709F4AFCF0E94AC
:1032E000970C24E0829FC001112490937C0180936D
:1032F0007B01BDCF0817190709F4A0CF0E94970CD6
:10330000C03108F09BCF682F8C2F0E942B0E96CFD8
:10331000E4ECF2E01382128288EE93E0A0E0B0E0E9
:1033200084839583A683B7838DE191E09183808325
:1033300085EC90E09587848784EC90E0978786877A
:1033400080EC90E0918B808B81EC90E0938B828B72
:1033500082EC90E0958B848B86EC90E0978B868B4B
:10336000118E128E138E148EEAEFF5E01382128204
:103370001486158617861686108A81E0818B8FE267
:1033800091E09183808384E08093F9051092AE03ED
:103390001092D0051092D10584E68093F00510922A
:1033A000F50580E58093F6051092F705E5E8F3E072
:1033B000148215821382128281E191E091838083CD
:1033C000E1E6F3E0148215821382128291838083F6
:1033D0000895CF93DF93CDB7DEB7CC54D1090FB6A4
:1033E000F894DEBF0FBECDBF789484B5826084BDF3
:1033F00084B5816084BD85B5826085BD85B58160F9
:1034000085BD80916E00816080936E001092810076
:103410008091810082608093810080918100816031
:1034200080938100809180008160809380008091F2
:10343000B10084608093B1008091B000816080937E
:10344000B00080917A00846080937A0080917A0045
:10345000826080937A0080917A00816080937A0004
:1034600080917A00806880937A001092C100E09188
:10347000D402F091D50282E08083E091D002F091F5
:10348000D1021082E091D202F091D30280E18083D8
:103490001092DC02E091D802F091D90286E080839C
:1034A000E091D602F091D702808180618083E09123
:1034B000D602F091D702808188608083E091D602A5
:1034C000F091D702808180688083E091D602F091EC
:1034D000D70280818F7D808361E088E00E940804AC
:1034E00061E089E00E94080461E082E00E94080433
:1034F00061E083E00E94080461E084E00E94080427
:1035000061E085E00E94080461E086E00E94080412
:1035100062E081E10E94080462E08EE00E940804FB
:1035200000E210E060E070E0CB010150110909F405
:103530007CC09B01AC01220F331F441F551F2D96E9
:103540002CAF3DAF4EAF5FAF2D97809104019091AE
:103550000501A0910601B0910701892B8A2B8B2BC5
:10356000B1F0109204011092050110920601109220
:1035700007010E944602092E000CAA0BBB0B809388
:10358000870190938801A0938901B0938A01B12C9F
:10359000A12C0E9446026C01990FEE08FF08412CF5
:1035A000512C320143948091870190918801A09120
:1035B0008901B0918A018C159D05AE05BF0519F4EE
:1035C000412C512C32010E944602092E000CAA0BFC
:1035D000BB0B8093870190938801A0938901B093DE
:1035E0008A014FEFA41AB40A41E050E060E070E0B5
:1035F000C816D906EA06FB0619F440E050E0BA0105
:10360000441655066606770629F433E6A316B10478
:1036100009F0BFCF2D966CAD7DAD8EAD9FAD2D97D2
:10362000642975298629972980CF6115710581053F
:10363000910511F00E94201F6DED73E084EC92E083
:103640000E945F0D10920E068CE380930D0610927F
:10365000B9008CE08093B8001092FE051092FF052F
:10366000E7EDF3E0C590D490E9EDF3E0F490EAEDF6
:10367000F3E0E491E0930006EBEDF3E0E491E093F6
:103680000106ECEDF3E0E491E09302060F1558F427
:10369000F601E00FF11F64918AEF95E00E94B904F2
:1036A0000F5F1F4FF3CF8AEF95E00E94C706E1EF4F
:1036B000F1E0F0930906E09308068491E2EFF1E06F
:1036C000E491F82F319709F0D1C01092030664E617
:1036D00070E080E090E00E945E048AEF95E00E9436
:1036E000C70666EE71E08AEF95E00E945F0D6AED15
:1036F00071E08AEF95E00E9457021092F305109254
:10370000F0051092F50586EF95E09093F205809311
:10371000F1050E9490046B010091F1051091F205F2
:103720008AE0F801828361E00E94080461E0F80108
:1037300082810E94DA031FB7F89480918B01811176
:1037400027C0E4E1F1E08491E0E0F1E09491E82F1A
:10375000F0E0EE0FFF1FE451FF4FA591B491EC9103
:10376000E92321F461E08AE00E94DA0361E08AE063
:103770000E9408048CB580618CBD8CB580648CBDC2
:1037800061E08DE00E94080461E08BE00E94080483
:1037900080918B018F5F80938B011FBFE091F105BA
:1037A000F091F20582E5808311828091F305811109
:1037B00004C080EF95E00E94E006E091F105F091F1
:1037C000F20561E082810E94DA031AE08FEF0E9425
:1037D000F4061150D9F7E091F105F091F20560E09F
:1037E00082810E94DA031AE020E030E0A90160E063
:1037F00080EF95E00E943007082F813009F448C01F
:103800001150C1F580E28093F00580EF95E00E94B1
:103810001B0763ED71E08AEF95E00E945F0D6FE496
:1038200071E08AEF95E00E94BF0D6DEB71E08AEFC9
:1038300095E00E945F0D8091F005882309F4E0C0B7
:103840006EE471E084EC92E00E945F0D8091F005DF
:10385000803231F46EE171E084EC92E00E945F0D01
:103860008091F00581110E94D30DFFCF81E08093FC
:1038700003062DCF8DEF0E94F40628E0A22E22E051
:10388000B22E0E94F906F1E0AF1AB108D1F7ACCF21
:103890002AEA31E040E050E068E080EF95E00E94E5
:1038A000300714E0853041F50093F5058091F5056A
:1038B000412C512C612C90E4792E823019F0412C4E
:1038C000512C320120E030E0A90167E380EF95E060
:1038D0000E943007A301920169E280EF95E00E9407
:1038E00030078823B9F00E9490046C197D09613D6E
:1038F000774040F383E487CF0E94F9068093F40574
:103900001150D1F78A3A21F482E08093F505CECFA9
:1039100085E279CF8091F5058230D1F420E030E066
:10392000A9016AE380EF95E00E943007882311F037
:1039300087E369CF0E94F906807C803C19F483E01C
:103940008093F5050E94F9060E94F9060E94F90687
:1039500080EF95E00E941B07E091F105F091F205E0
:1039600080E5808381E0818380EF95E09093AA03D6
:103970008093A90380ED95E00E94EC0B81E00E940A
:10398000B9088823B9F169EA73E080ED95E00E94F7
:10399000040F882309F43DCF8091D005807709F486
:1039A00038CF80ED95E090938D0180938C0166E592
:1039B00071E08AEF95E00E94500D6AE972E080E0C4
:1039C00090E00E945E0419A61AA618A61FA281E123
:1039D00091E09EA38DA380918C0190918D010E9416
:1039E0005F1401E111E0811128C08AE591E00E9495
:1039F000F90DFFCF80E00E94B9088111C4CF09CF33
:103A00008091AE03811107C060EA71E084EC92E01E
:103A10000E945F0D2ACF8091D005811107C065E813
:103A200071E084EC92E00E945F0D1FCF65E771E0CA
:103A300084EC92E00E945F0D18CF89A581113DC0F2
:103A4000809165038077C9F1809175039091760329
:103A5000A0917703B09178038F719927AA27BB278C
:103A6000892B8A2B8B2B49F5CE0189960E94471012
:103A7000882319F180E2FE01B996DE0115960190C6
:103A80000D928A95E1F78FA198A59C838B831A8369
:103A90000983CE0101960E940616882349F0809181
:103AA0008E0190918F01019690938F0180938E01EA
:103AB000CE0189960E94EC0BC0CFF8941092800042
:103AC0008CE08093810082E080936F0010928500EB
:103AD0001092840082EE94E0909389008093880095
:103AE00078941092B1001092B20083E28093B000FB
:103AF00089E08093B10088E08093B30083E08093F5
:103B0000B4000E94C10C0E944A1680E0E82E80E0BA
:103B1000F82EDD24D3948091C3028111C1C080911D
:103B2000BE029091BF020091BC021091BD029C01A7
:103B3000215031092017310709F449C00B3231E017
:103B4000130719F4892B09F442C08091890383FF7C
:103B50009EC08091A1039091A203A091A303B09174
:103B6000A4034091990350919A0360919B03709133
:103B70009C03841B950BA60BB70B811540E894079B
:103B8000A105B10520F08FEF9FE7A0E0B0E0892B01
:103B900009F484C0BE016F5F7F4F89E893E00E9403
:103BA0001E0F019709F077C0898198012F5F3F4F61
:103BB0003093BD022093BC02F801E057FE4F808392
:103BC0002C32314021F41092BD021092BC0280913F
:103BD0000801882321F00E94C10C0E944A168EE041
:103BE0000E94B103892BF1F48091C30281111AC0A4
:103BF0008091C002811116C060E070E0CB010E948C
:103C0000740ED092C002F89448E160E08AEF95E02B
:103C10000E94E60465EF73E08AEF95E00E94570288
:103C2000D092C3028EE00E94B103892B99F4809157
:103C3000C302882379F08091C00281110BC0D09219
:103C4000C0021092C302789460E070E080E89FE3C5
:103C50000E94740E8EE00E94B103019761F480917E
:103C6000C002882341F06AEF70E080E090E00E949B
:103C70005E041092C002E114F10409F44CCF0E94DA
:103C8000E502882309F447CF0E94000044CF80E07A
:103C900090E0DC0172CF8FEF9FEF87CF8DEF85CF64
:103CA0008091C1029091C20291112DC08F5F8093CB
:103CB000C1026091C102643609F5D092C20248E1A6
:103CC0008AEF95E00E94E60462E174E08AEF95E0F5
:103CD0000E94570268EB7BE080E090E00E945E0467
:103CE00048E16091C1028AEF95E00E94E6046CE031
:103CF00074E08AEF95E00E94570269CF6111DFCF2F
:103D00001092C202DCCF8150D2CF8F929F92AF929D
:103D1000BF92CF92DF92EF92FF92CF93DF93EC01AD
:103D2000688179818A819B81611571058105910581
:103D300021F464E279ED8BE597E02DE133EF41E08A
:103D400050E00E94291F49015A019B01AC01A7EADA
:103D5000B1E40E94481F6B017C01ACEEB4EFA501F9
:103D600094010E94561FC60ED71EE81EF91EF7FECC
:103D700006C081E0C81AD108E10880E8F80AC882C4
:103D8000D982EA82FB82C701B6019F77DF91CF918A
:103D9000FF90EF90DF90CF90BF90AF909F908F906B
:103DA00008958F929F92AF92BF92CF92DF92EF923F
:103DB000FF926091090170910A0180910B0190912D
:103DC0000C01611571058105910521F464E279ED1D
:103DD0008BE597E02DE133EF41E050E00E94291F91
:103DE00049015A019B01AC01A7EAB1E40E94481FB6
:103DF0006B017C01ACEEB4EFA50194010E94561F4B
:103E0000C60ED71EE81EF91EF7FE06C081E0C81ACE
:103E1000D108E10880E8F80AC0920901D0920A01AD
:103E2000E0920B01F0920C01C701B6019F77FF9061
:103E3000EF90DF90CF90BF90AF909F908F900895BC
:103E40006093090170930A0180930B0190930C0118
:103E50000895052E97FB1EF400940E94401F57FD05
:103E600007D00E945B1F07FC03D04EF40C94401F48
:103E700050954095309521953F4F4F4F5F4F089596
:103E800090958095709561957F4F8F4F9F4F0895C6
:103E90000E947D1FA59F900DB49F900DA49F800D43
:103EA000911D11240895B7FF0C94481F0E94481FCC
:103EB000821B930B0895A1E21A2EAA1BBB1BFD01C6
:103EC0000DC0AA1FBB1FEE1FFF1FA217B307E407F9
:103ED000F50720F0A21BB30BE40BF50B661F771F51
:103EE000881F991F1A9469F7609570958095909531
:103EF0009B01AC01BD01CF010895A29FB001B39F0A
:103F0000C001A39F700D811D1124911DB29F700DE2
:103F1000811D1124911D08955058BB27AA270E9486
:103F2000A41F0C94EE200E94E02038F00E94E720AD
:103F300020F039F49F3F19F426F40C94DD200EF4A0
:103F4000E095E7FB0C94D720E92F0E94FF2058F35F
:103F5000BA17620773078407950720F079F4A6F56E
:103F60000C9421210EF4E0950B2EBA2FA02D0B01FD
:103F7000B90190010C01CA01A0011124FF27591BAE
:103F800099F0593F50F4503E68F11A16F040A22FB4
:103F9000232F342F4427585FF3CF46953795279525
:103FA000A795F0405395C9F77EF41F16BA0B620B24
:103FB000730B840BBAF09150A1F0FF0FBB1F661F6B
:103FC000771F881FC2F70EC0BA0F621F731F841FAE
:103FD00048F4879577956795B795F7959E3F08F0D4
:103FE000B0CF9395880F08F09927EE0F9795879596
:103FF00008950E940D200C94EE200E94E72058F0B6
:104000000E94E02040F029F45F3F29F00C94D72073
:1040100051110C9422210C94DD200E94FF2068F3A2
:104020009923B1F3552391F3951B550BBB27AA2771
:1040300062177307840738F09F5F5F4F220F331FAB
:10404000441FAA1FA9F335D00E2E3AF0E0E832D073
:1040500091505040E695001CCAF72BD0FE2F29D076
:10406000660F771F881FBB1F261737074807AB0748
:10407000B0E809F0BB0B802DBF01FF2793585F4FBD
:104080003AF09E3F510578F00C94D7200C942221F1
:104090005F3FE4F3983ED4F3869577956795B7959F
:1040A000F7959F5FC9F7880F911D9695879597F9AA
:1040B0000895E1E0660F771F881FBB1F6217730723
:1040C0008407BA0720F0621B730B840BBA0BEE1F38
:1040D00088F7E09508950E94072188F09F5798F08F
:1040E000B92F9927B751B0F0E1F0660F771F881FFD
:1040F000991F1AF0BA95C9F714C0B13091F00E9417
:104100002121B1E008950C942121672F782F882771
:10411000B85F39F0B93FCCF3869577956795B3953D
:10412000D9F73EF490958095709561957F4F8F4FAC
:104130009F4F0895E89409C097FB3EF490958095B1
:10414000709561957F4F8F4F9F4F9923A9F0F92F5D
:1041500096E9BB279395F695879577956795B795DB
:10416000F111F8CFFAF4BB0F11F460FF1BC06F5FC1
:104170007F4F8F4F9F4F16C0882311F096E911C0D3
:10418000772321F09EE8872F762F05C0662371F0F4
:1041900096E8862F70E060E02AF09A95660F771F08
:1041A000881FDAF7880F9695879597F9089597F9FC
:1041B0009F6780E870E060E008959FEF80EC0895CD
:1041C00000240A94161617061806090608950024F6
:1041D0000A9412161306140605060895092E039470
:1041E000000C11F4882352F0BB0F40F4BF2B11F4E4
:1041F00060FF04C06F5F7F4F8F4F9F4F089557FD43
:104200009058440F551F59F05F3F71F04795880F44
:1042100097FB991F61F09F3F79F0879508951216DB
:1042200013061406551FF2CF4695F1DF08C0161687
:1042300017061806991FF1CF869571056105089438
:104240000895E894BB2766277727CB0197F908954F
:104250000E943B210C94EE200E94E02038F00E9446
:10426000E72020F0952311F00C94D7200C94DD204A
:1042700011240C9422210E94FF2070F3959FC1F31A
:10428000950F50E0551F629FF001729FBB27F00D04
:10429000B11D639FAA27F00DB11DAA1F649F662759
:1042A000B00DA11D661F829F2227B00DA11D621FA8
:1042B000739FB00DA11D621F839FA00D611D221F62
:1042C000749F3327A00D611D231F849F600D211D46
:1042D000822F762F6A2F11249F5750409AF0F1F0C9
:1042E00088234AF0EE0FFF1FBB1F661F771F881F32
:1042F00091505040A9F79E3F510580F00C94D72073
:104300000C9422215F3FE4F3983ED4F38695779591
:104310006795B795F795E7959F5FC1F7FE2B880FD7
:10432000911D9695879597F90895AA1BBB1B51E19E
:1043300007C0AA1FBB1FA617B70710F0A61BB70B15
:10434000881F991F5A95A9F780959095BC01CD01BA
:104350000895EE0FFF1F0590F491E02D099481E080
:1043600090E0F8940C94B524FB01DC0104C08D911D
:104370000190801921F441505040C8F7881B990BD7
:104380000895FB01DC0102C001900D9241505040A4
:10439000D8F70895FB01DC018D9181341CF08B3539
:1043A0000CF4805E619161341CF06B350CF4605E3E
:1043B000861B611189F3990B0895AEE0B0E0E3EE3E
:1043C000F1E20C948C240D891E8986E08C831A837B
:1043D00009838FEF9FE79E838D83AE01475E5F4F1A
:1043E0006F89788DCE0101960E9400222F81388539
:1043F000020F131FF80110822E96E4E00C94A824FB
:10440000ABE0B0E0E6E0F2E20C947E247C013B01FC
:104410008A01FC0117821682838181FFC8C1CE0107
:1044200001965C01F7019381F30193FD859193FF60
:1044300081913F01882309F453C1853239F493FDFA
:10444000859193FF81913F01853229F4B70190E076
:104450000E94F023E7CF912C212C312CFFE1F315A2
:1044600038F08B3211F190F4803209F1833229F166
:1044700037FC3CC020ED280F2A3050F536FE20C016
:104480008AE0989E200D1124922E06C08D3291F064
:10449000803371F7689430F8F30193FD859193FFB1
:1044A00081913F018111DACF21C0689431F868947D
:1044B00032F8F2CF689433F8EFCF689434F8ECCF49
:1044C000EAE02E9E200D1124222E689435F8E4CFC8
:1044D0008E3229F436FC04C1689436F8DDCF8C3670
:1044E00019F4689437F8D8CF8836B1F2982F9F7DA9
:1044F00095549330E0F08336A1F18337C1F18335D1
:1045000009F063C02801F2E04F0E511CF801C08091
:10451000D180692D70E036FC02C06FEF7FEFC601DD
:104520000E94DA234C01689437F882010AC00C5FBC
:104530001F4FFFE3F98388248394912C6501E8944D
:1045400037F833FE2DC0522C8114910471F555209B
:1045500009F468CFB70180E290E00E94F0235A94FA
:10456000F6CFF801808189830E5F1F4FE4CF2801C9
:10457000F2E04F0E511CF801C080D180692D70E02F
:1045800036FC02C06FEF7FEFC6010E94E5234C01AD
:104590008201D5CFB70180E290E00E94F0232A94F7
:1045A0002814190409F0B0F7CECFF60137FC859135
:1045B00037FE81916F01B70190E00E94F023511006
:1045C0005A94F1E08F1A9108BFCF843619F08936DA
:1045D00009F077C0F80137FE6BC06081718182817C
:1045E00093810C5F1F4FF32DFF763F2E97FF09C07D
:1045F00090958095709561957F4F8F4F9F4F6894F0
:1046000037F82AE030E0A5010E942024C82ECA18FD
:104610008C2C432C36FE0CC0E89440F8C91440F4AE
:1046200034FE05C032FC03C0F32DFE7E4F2E892CD4
:1046300044FE95C0FE01EC0DF11D8081803309F030
:1046400087C0242D297E422E842D8870582E43FC4D
:1046500095C040FE8FC09C2C821418F42C0C922C18
:10466000981844FE91C0B70180E390E00E94F023C7
:1046700042FE09C088E790E041FE02C088E590E074
:10468000B7010E94F023C91408F48AC0CA94D12C3F
:104690009FEFC91AD90ACA0CDB1CF60182916F017F
:1046A000B70190E00E94F023AC14BD04B1F74FCFE6
:1046B00060817181072E000C880B990B0E5F1F4FD4
:1046C00092CFD32CE894D4F82AE030E0853739F142
:1046D000232D297FD22E8F3601F148F48835A9F099
:1046E000F701868197812B96E2E10C949A2480371A
:1046F00049F08837A9F7D4FE02C06894D2F820E1C7
:1047000030E00DC06894D4F8F6CF34FE03C0822F99
:104710008660D82E20E132E002C028E030E0F801C7
:10472000D7FE0FC060817181828193810C5F1F4F22
:10473000A5010E942024C82ECA183D2CE89437F801
:1047400067CF6081718190E080E00E5F1F4FF0CFF6
:1047500042FC02C0839478CF8394839475CF842DD8
:10476000867809F471CFF6CFB70180E290E00E941D
:10477000F02383948214C0F3512C73CF522C581819
:10478000821408F46ECFF8CF842D867809F47BCF9D
:104790008BE241FE80E247FC8DE2B70190E071CFF1
:1047A000B70180E390E00E94F0239A946CCF8FEFE2
:1047B0009FEF99CFFC010590615070400110D8F730
:1047C000809590958E0F9F1F0895FC016150704059
:1047D00001900110D8F7809590958E0F9F1F089536
:1047E0000F931F93CF93DF93182F092FEB018B812A
:1047F00081FD09C01FEF0FEF812F902FDF91CF9127
:104800001F910F91089582FF14C02E813F818C81EA
:104810009D81281739073CF4E881F981CF01019681
:104820009983888310838E819F8101969F838E83D5
:10483000E3CFE885F985812F0995892BA1F3DACF9C
:10484000FA01AA27283051F1203181F1E8946F93C1
:104850006E7F6E5F7F4F8F4F9F4FAF4FB1E03ED067
:10486000B4E03CD0670F781F891F9A1FA11D680F05
:10487000791F8A1F911DA11D6A0F711D811D911D38
:10488000A11D20D009F468943F912AE0269F1124AD
:104890003019305D3193DEF6CF010895462F477011
:1048A000405D4193B3E00FD0C9F7F6CF462F4F706C
:1048B000405D4A3318F0495D31FD4052419302D0CA
:1048C000A9F7EACFB4E0A695979587957795679570
:1048D000BA95C9F700976105710508959B01AC0170
:1048E0000A2E06945795479537952795BA95C9F797
:1048F000620F731F841F951FA01D08952F923F9272
:104900004F925F926F927F928F929F92AF92BF92DF
:10491000CF92DF92EF92FF920F931F93CF93DF938B
:10492000CDB7DEB7CA1BDB0B0FB6F894DEBF0FBEE8
:10493000CDBF09942A88398848885F846E847D8435
:104940008C849B84AA84B984C884DF80EE80FD8037
:104950000C811B81AA81B981CE0FD11D0FB6F894AD
:0E496000DEBF0FBECDBFED010895F894FFCF6E
:10496E000000803F01000000010100000000000077
:10497E000040133D134D0D490D000000001B037B3D
:10498E0002A8026803D902B702CB02000000002D74
:10499E00057B024D0D4C0DF50C0D0A002F002E70EF
:1049AE007367004F7266002530336400206F6620F7
:1049BE00004E6D662E004F4B21004F70656E2072BB
:1049CE006F6F74206661696C6564003E003C005D2B
:0449DE00005B00007A
:00000001FF
